:100000000000012071330000993300009B33000091
:100010009D3300009F330000A1330000000000006A
:10002000000000000000000000000000A3330000FA
:10003000A533000000000000A7330000A933000032
:10004000AB330000AB330000892C0000AB33000061
:10005000AB330000AB33000029280000AB330000B5
:10006000AB330000AB330000AB330000AB33000018
:10007000AB330000AB330000AB330000AB33000008
:10008000AB330000AB330000D92A0000AB330000D3
:10009000AB330000AB330000AB330000AB330000E8
:1000A000AB330000AB330000AB330000AB330000D8
:1000B000AB330000AB330000000000000000000084
:1000C000AB330000AB330000AB330000AB330000B8
:1000D000AB330000AB330000AB3300000000000086
:1000E0000000000000000000000000000000000010
:1000F0000000000000000000000000000000000000
:1001000000000000000000000000000000000000EF
:1001100000000000000000000000000000000000DF
:1004000010B5054C237833B9044B13B10448AFF34E
:1004100000800123237010BDB40000200000000004
:1004200098480000084B10B51BB108490848AFF3C5
:1004300000800848036803B910BD074B002BFBD0B0
:10044000BDE81040184700BF00000000B8000020C1
:1004500098480000B000002000000000154B002B61
:1004600008BF134B9D46A3F5803A00218B460F46EB
:100470001348144A121A00F065F80F4B002B00D0F5
:1004800098470E4B002B00D0984700200021040015
:100490000D000D48002802D00C48AFF3008000F09A
:1004A0002BF82000290002F053FE00F011F800BFE5
:1004B0000000080000000120000000000000000013
:1004C000B400002004040020000000000000000030
:1004D00008B5074B044613B10021AFF30080054B6C
:1004E0001868836A03B19847204601F0F5FE00BF03
:1004F000000000002044000070B50E4B0E4CE41AC2
:10050000A41000251E46A54204D056F82530984771
:100510000135F8E703F076FF084C094BE41AA41004
:1005200000251E46A54204D056F8253098470135CF
:10053000F8E770BDA8000020A8000020AC00002053
:10054000A800002002440346934202D003F8011B96
:10055000FAE770472DE9FF4755EC104B0D9FDDF88A
:1005600030A0002D0E4691461946B8BF22462B46B4
:1005700027F02007BBBF05F100431D4600232D23B4
:10058000B8BF1446462F0B7003D0452F03D1013658
:1005900001E0032100E0022103AB019302AB0093D1
:1005A0003246534645EC104B00F0DAFC472F8046AC
:1005B00002D119F0010F28D0462F08EB060911D1FE
:1005C00098F80030302B0AD100220023204629461B
:1005D00003F084FC18B9C6F10106CAF80060DAF825
:1005E00000309944002200232046294603F076FC7F
:1005F00008B9302202E0CDF80C9006E0039B994543
:1006000003D9591C03911A70F8E7039B0E9AC8EBA3
:1006100003034046136004B0BDE8F08773B503469A
:100620000029B8BF494203F8022BB4BF2D222B2268
:100630000929427019DD0DF1070216460A2591FBC2
:10064000F5F405FB14113031092C02F8011D214687
:10065000F5DC3031541E02F8011CB4421A460AD2AD
:1006600014F8012B03F8012BF7E730241A46214434
:1006700002F8024B5970101A02B070BD2DE9F04F0C
:100680008DB00C46DDF8588016461F46054601F031
:1006900007FA03680493184600F0CAFB00230A9384
:1006A000D8F800300590073323F0070303F1080260
:1006B00094F818A0D4F800B0C8F80020D3E90023BB
:1006C000C4E91223D4E9128929F000430793CDF835
:1006D00018804FF0FF32A64BDDE9060103F030FC35
:1006E000A0B94FF0FF32A24BDDE9060103F00AFC8E
:1006F00060B9002200234046494603F0F9FB10B1DF
:100700002D2384F843309B4B9B4A0AE042464B46DC
:100710004046494603F014FC002800F09081974BB6
:10072000974ABAF1470F8CBF9046984603232BF0A7
:100730000402236122604FF000093BE0BAF1670F29
:1007400000F08581BAF1470F00F081810023039307
:100750000AAB029309AB009349EC108B0DF1230314
:100760002260CDF804A061682846FFF7F3FE0AF086
:10077000DF03472B804600F07F81BAF1650F0999AE
:1007800000F288810139524604F150000991FFF7C7
:1007900045FF0A9A8318012A8146236100F3778175
:1007A0002268D10700F173819DF8233013B12D2306
:1007B00084F84330009733460BAA2146284600F0C0
:1007C0009BF9013002D14FF0FF3091E123685A05C7
:1007D00001D4236965E0BAF1650F40F2D5800022AB
:1007E0000023D4E9120103F079FB78B30123654AB1
:1007F00031462846B8470130E5D00A9B099A9A420B
:100800000BDB2368D80708D423689B0740F11181CC
:100810004FF0000804F1190906E1059B049A3146DE
:100820002846B8470130CED04FF0000804F11A092D
:100830000A9B013B9845E7DA01234A4631462846A0
:10084000B8470130BFD008F10108F1E7099B002B40
:1008500029DC01234B4A31462846B8470130B2D043
:10086000099B23B90A9B13B92368D907CCD5059BEB
:10087000049A31462846B8470130A4D04FF0000909
:1008800004F11A0A099B5B42994509DA0123524691
:1008900031462846B847013095D009F10109F1E702
:1008A0000A9B4246A7E00A9AA36D9A42A8BF1A463D
:1008B000002A914606DC4FF0000A29EAE97904F1A2
:1008C0001A0B11E01346314642462846B84701301C
:1008D000F1D178E701235A4631462846B84701301E
:1008E0003FF471AF0AF1010AA36DC9EB030292450F
:1008F000F0DB08EB0309099A0A9B9A420FDB236895
:10090000DA070CD40A9B099A9844C9EB08089B1A89
:100910009845A8BF9846B8F1000F08DC0FE0059B8A
:10092000049A31462846B8470130EBD14BE743469D
:100930004A4631462846B84701303FF444AF4FF0AD
:10094000000928EAE87804F11A0A09E0012352466E
:1009500031462846B84701303FF435AF09F1010967
:10096000099A0A9B9B1AC8EB03039945EEDB4BE7F8
:10097000FFFFEF7F24440000284400002C440000C7
:1009800030440000344400000A9A012A01DCDB07ED
:1009900038D50123424631462846B84701303FF456
:1009A00012AF059B049A31462846B84701303FF400
:1009B0000AAF00220023D4E9120103F08FFA20B11C
:1009C0004FF0000804F11A0A0EE00A9B08F1010238
:1009D000013B19E00123524631462846B847013011
:1009E0003FF4F1AE08F101080A9B013B9845F1DBA9
:1009F0004B4604F1500231462846B84701307FF497
:100A000003AFE0E60123424631462846B8470130AD
:100A1000EED1D8E601234A4631462846B847013090
:100A20003FF4D1AE08F10108E3680B9A9B1A984590
:100A3000F0DBE0680B9B9842B8BF184658E061684D
:100A40004B1C4BF480627FF479AE062301E011B9B0
:100A5000012363607AE6002303930AAB029309AB98
:100A6000009349EC108B2260CDF804A00DF1230314
:100A70002846FFF76FFD8046099BD81C02DB6268A1
:100A800093421DDDAAF1020A5FFA8AFA75E6013384
:100A9000236189E6BAF1660F14D10029636807DD86
:100AA000216113B92268D2071DD501330B4419E027
:100AB00013B92268D00701D5023313E0012311E0F6
:100AC0004FF0670A099B0A9A934205DB226823616B
:100AD000D10708D5013305E0002BD4BFC3F10203D1
:100AE000012313442361099BA3654FF000095BE6D2
:100AF0000DB0BDE8F08F00BF2DE9F04791461F46CD
:100B00000A698B68DDF820809342B8BF1346C9F8A4
:100B1000003091F8432006460C4612B10133C9F863
:100B200000302368990642BFD9F800300233C9F873
:100B30000030256815F0060510D104F1190A07E008
:100B40000123524639463046C04701301AD001359C
:100B5000E368D9F800209B1A9D42F1DB94F84330FA
:100B60002268003318BF012392060FD5E1185A1CE2
:100B7000302081F84300224494F8451082F8431055
:100B8000023303E04FF0FF30BDE8F08704F1430289
:100B900039463046C0470130F4D02268D9F80050B9
:100BA000E36802F00602042A08BF5D1B2269A368FD
:100BB0000CBF25EAE57500259342C4BF9B1AED18CA
:100BC0004FF000091A344D4509D001232246394619
:100BD0003046C0470130D5D009F10109F3E70020C4
:100BE000BDE8F0872DE9F04317460A7E85B06E2AEE
:100BF000984606460C460C9B01F1430E00F0AE8071
:100C000011D8632A22D009D8002A00F0BB80582AC4
:100C100040F0CA8081F84520834955E0642A1ED0FF
:100C2000692A1CD0C0E0732A00F0B08009D86F2A6E
:100C30002ED0702A40F0B8800A6842F020020A6084
:100C40003EE0752A24D0782A3AD0ADE01A6801F146
:100C50004205111D1960136884F84230A8E021682C
:100C60001A6811F0800F02D0111D196008E011F010
:100C7000400F02F10401196002D0B2F9003000E027
:100C80001368002B3CDA2D225B4284F8432037E0C6
:100C900021681A6811F0800F02D0111D196007E059
:100CA00011F0400F02F10401196001D0138800E037
:100CB0001368227E5C496F2A14BF0A2208221BE0B7
:100CC00078225A4984F845202268186812F0800F6B
:100CD00000F104051D6003D1550601D5038800E02D
:100CE0000368D00744BF42F0200222601BB922688B
:100CF00022F0200222601022002084F8430001E04C
:100D000049490A226568A560002D08DB206820F0AB
:100D1000040020602BB9002D7DD175460CE0002B1E
:100D200079D07546B3FBF2F002FB1033CB5C05F8CB
:100D3000013D03460028F5D1082A0BD12368DA07C4
:100D400008D5236962689A42DEBF302305F8013C6A
:100D500005F1FF35C5EB0E0323612EE008681A6824
:100D6000496910F0800F03D0101D1860136808E067
:100D700010F0400F02F104001860136801D01980D0
:100D800000E0196000232361754616E01A68111D02
:100D90001960156862680021284600F091FE08B1CC
:100DA000401B6060636804E004F1420584F842205F
:100DB00001232361002384F84330CDF800803B46B3
:100DC00003AA21463046FFF797FE013002D14FF0CB
:100DD000FF3026E023692A4639463046C0470130B5
:100DE000F5D023689B0710D5002504F1190907E009
:100DF00001234A4639463046C0470130E7D0013525
:100E0000E368039A9B1A9D42F2DBE068039B9842D9
:100E1000B8BF184605E00B7884F8423004F142056B
:100E20008AE705B0BDE8F08336440000474400007F
:100E3000034613F8012B002AFBD1181A013870471A
:100E40002DE9F74F03690C699C42804600F38380CB
:100E5000013C01F114074FEA840E00F1140657F823
:100E6000245006EB0E030193013556F82430B3FBF2
:100E7000F5F507EB0E09002D39D04FF0000A384682
:100E8000B446D34650F8042B93B205FB03A34FEAB4
:100E9000134A9BB2C3EB0B03120CBCF800B005FB6A
:100EA00002A213FA8BF34FEA124A1FFA82FBDCF814
:100EB0000020CBEB124202EB23429BB243EA0243F7
:100EC00081454FEA224B4CF8043BDBD256F80E30FA
:100ED0006BB9019B043B9E421A4602D3C8F81040EE
:100EE00005E01268043B002AF8D1013CF3E74046D4
:100EF00001F04FF800282CDB013530464FF0000E92
:100F000057F8041BD0F800C08AB2C2EB0E03090CDC
:100F100013FA8CF3C1EB1C4202EB23429BB243EA6F
:100F20000243B9454FEA224E40F8043BE8D256F856
:100F3000242006EB840362B9043B9E421A4602D386
:100F4000C8F8104005E01268043B002AF8D1013CC3
:100F5000F3E7284600E0002003B0BDE8F08F000072
:100F60002DE9F04F59EC108B97B0456A06918246F7
:100F700009921093209CCDE9008945B9102000F01A
:100F800093FDCAF82400456085600560C560DAF805
:100F90002430196859B15A684A60012393408B6024
:100FA000504600F01DFEDAF8243000221A60019B42
:100FB0009F4A002BBFBF01232360019B23F0004306
:100FC000B8BF0193019FA4BF0023236027F0004313
:100FD0001B0D1B0593421DD1109A42F20F73136033
:100FE000009B43B9934A944BC7F31300002814BFE6
:100FF0001846104600E09048219B002B00F04A85DF
:10100000C37813B100F1080300E0C31C219A1360F8
:1010100000F040BDDDE900450022002320462946BE
:1010200002F05CFF804658B1109A01231360219BA7
:10103000002B00F0228581481860013800F02ABD9D
:1010400014AA15A945EC104B504601F01DF8C7F342
:101050000A5602905EB1C5F3130343F07F51204658
:1010600041F44011A6F2FF36CDF844801DE0159BF7
:10107000149E1E4406F23243202B0ADD009A06F22B
:101080001240C3F1400322FA00F007FA03F31843B9
:1010900004E0C3F12000009B03FA00F002F040FCE2
:1010A0000123A1F1F871013E11930022644B02F07B
:1010B000F9FA59A3D3E9002302F0A8FC58A3D3E915
:1010C000002302F0F1FA044630460D4602F038FCE7
:1010D00055A3D3E9002302F099FC02460B462046B3
:1010E000294602F0E1FA04460D4602F03FFF0022D5
:1010F000834600232046294602F0FAFE58B158469E
:1011000002F01EFC02460B462046294602F0E6FE8F
:1011100008B90BF1FF3BBBF1160F0DD8494901EBA4
:10112000CB01DDE90023D1E9000102F0FFFE30B17F
:101130000BF1FF3B002300E001230D9300E00D9035
:10114000149B9E1B731E059343BFC3F1000900232C
:1011500005934FF00009BBF1000F07DB059BCDF8AD
:1011600030B05B4405930023079306E0CBF1000306
:1011700007930023CBEB09090C93069B092B27D877
:10118000052BC4BF043B0693069BA3F10203CCBF0F
:1011900000250125032B20D8DFE803F0060E02040A
:1011A000012302E0012308E000230893099B002BA0
:1011B0001CDD039398461EE000230893099B5B44C3
:1011C00003F1010803934346012BB8BF012312E04A
:1011D000012500230693089501E0012308934FF0B1
:1011E000FF33039398460022122303E00123039365
:1011F00098461A460992DAF82440002262600421D7
:1012000001F114029A421FD86268013262604900FB
:10121000F6E700BFAFF3008061436F63A787D23F5B
:10122000B3C8608B288AC63FFB799F501344D33FD5
:101230000000F07F58440000614400003544000085
:101240000000F83FA84400006168504600F093FC9D
:10125000DAF8243020601B680493B8F10E0F00F216
:101260005D81002D00F05A819DED007BBBF1000FE8
:101270008DED0E7B31DDA04A0BF00F0302EBC303B3
:1012800093ED007B4FEA2B14E2068DED0A7B0CD523
:101290009A4BDDE90E01D3E9082302F0E1FC04F0EA
:1012A0000F04CDE90001032600E00226934D6CB146
:1012B000E30708D5DDE90A01D5E9002302F0A6FB22
:1012C000CDE90A01013664100835F0E7DDE90A23AB
:1012D000DDE9000102F0C4FC20E0CBF1000404B31E
:1012E000854B864D04F00F0203EBC203D3E90023C4
:1012F000DDE90E0102F08AFBCDE900012411002393
:10130000022654B1E70705D5D5E9002302F07EFB9C
:101310000136012364100835F3E71BB1CDE9000164
:1013200000E002260D9BEBB1DDE900450022744B85
:101330002046294602F0DCFDA0B1B8F1000F11D023
:10134000039B002B40F3E6800BF1FF330A9300224E
:101350006C4B2046294602F059FB0136CDE90001CD
:10136000039F02E0CDF828B04746304602F0E8FA85
:10137000DDE9002302F04AFB0022634B02F094F9FE
:101380000446A1F15075CFB90022604BDDE90001A0
:1013900002F088F922462B46CDE9000102F0C6FD95
:1013A000002840F04182224605F10043DDE90001BA
:1013B00002F09EFD002840F02E82ABE0089A4E4BD2
:1013C000791E002A4AD003EBC103D3E90023002091
:1013D0004F4902F045FC22462B4602F063F9049C7B
:1013E00005460E46DDE9000102F0C0FD129002F054
:1013F000A7FA02460B46DDE9000102F053F9129B01
:10140000303304F8013B2A463346CDE9000102F0AF
:101410006FFD002840F02183DDE9002300203849DA
:1014200002F040F92A46334602F062FD002840F0FF
:10143000D280049BE31ABB426CDA0022314B28466F
:10144000314602F0E3FA002205460E462D4BDDE957
:10145000000102F0DBFACDE90001C3E703EBC101B3
:1014600022462B46D1E9000102F0D0FA049BCDE9D7
:101470001201DC191D46DDE9000102F077FD064688
:1014800002F05EFA303602460B46DDE9000102F05A
:1014900009F905F8016BAC42CDE900014FF00002FB
:1014A00023D11B4BDDE9120102F0FEF802460B4688
:1014B000DDE9000102F03AFD002840F08C80DDE912
:1014C00012230020124902F0EDF802460B46DDE936
:1014D000000102F00DFDE8B114F8013C302B04F1DD
:1014E000FF3240F0BA821446F6E7064B02F08EFA5D
:1014F000CDE90001BFE700BFA84400008044000020
:101500000000F03F0000244000001C400000144098
:101510000000E03FDDE90E34CDE90034159B002BDF
:101520007CDBBBF10E0F79DC8F4B03EBCB03D3E9F4
:101530000067099B002B14DAB8F1000F11DC40F0B2
:101540006C810022894B3046394602F05FFADDE9B2
:10155000002302F0E1FC45464646002840F05F814A
:1015600066E1049C32463B46DDE9000102F078FB6F
:1015700002F0FCFC054602F0E3F932463B4602F07D
:1015800045FA0B460246DDE9000102F08BF805F151
:10159000300E04F801EB049BC3EB040EF045CDE9DB
:1015A00000012ED102460B4602F07EF880468946A5
:1015B00002460B463046394602F09AFC78B942465C
:1015C0004B463046394602F089FC002800F047823D
:1015D000E90704D443E2DDF828B000E01C4614F823
:1015E000012C392A04F1FF3307D1049A9A42F5D12C
:1015F000049930220BF1010B0A701A7801321A702B
:101600002DE200225A4B02F001FA00220023CDE91C
:10161000000102F063FC0028A4D020E2089A002A0E
:101620002DD0069A012A0ADC119A12B103F2334333
:1016300002E0149BC3F13603079D4C4615E0079B5F
:1016400008F1FF35AB42BFBF079B0795EA1A0C9B19
:10165000B7BF9B185D1B0C930025B8F1000FB9BFF5
:10166000C8EB090400234C464346059A01211A445D
:1016700050469944059200F052FB064602E0079D51
:10168000089E4C465CB1059B002B08DDA342059AE1
:10169000A8BF2346C3EB0909E41AD31A0593079B95
:1016A000002B1DDD089BABB185B131462A46504663
:1016B00000F0D0FB029A01460646504600F038FB87
:1016C00002990746504600F08BFA0297079B5A1B77
:1016D00006D000E0079A0299504600F0BBFB02904A
:1016E0000121504600F01BFB0C9B05465BB31A46DC
:1016F0000146504600F0AEFB069B012B054618DC68
:10170000009B83B9019BC3F3130373B9019B23F0BF
:1017100000473F0D3F054FB1059B013309F101091A
:101720000593012702E0002700E0009F0C9B73B1A6
:1017300000E000272B6905EB8303186900F0A2FA8B
:10174000C0F1200004E0069B012BD9DD0C9F012095
:10175000059B184410F01F000ED0C0F12003042B8D
:1017600008DDC0F11C0008E0A8440000000014409F
:101770000000244006D018461C30059B03448144D9
:1017800004440593B9F1000F05DD4A46029950461D
:1017900000F0AEFB0290059B002B05DD29461A46A2
:1017A000504600F0A5FB05460D9BEBB1294602987B
:1017B00000F0EFFB002817DA00230A2202995046B6
:1017C00000F025FA089B02900BF1FF3B002B00F084
:1017D0005881002331460A22504600F018FA039B34
:1017E000002B064637DC33E0B8F1000F2ADC069BFD
:1017F000022B27DDCDF80C80039B83B929460522F7
:10180000504600F004FA01460546029800F0C1FB7C
:1018100000280DDC03E03D4600E000252E46099B34
:10182000049C6FEA030B0AE0DDF828B03D463E4613
:10183000049B049A5C1C312313700BF1010BB0461E
:101840000026F7E0089BCDF80C8023B9049CB1E09A
:10185000069B022BD0DC002C05DD3146224650468B
:1018600000F046FB06469FB17168504600F083F9D0
:10187000326902320446920006F10C010C3000F08D
:101880006FF901222146504600F032FB804600E00D
:10189000B046009BDDF8109003F001030593294644
:1018A0000298FFF7CDFA3146044600F1300702985E
:1018B00000F06FFB424600902946504600F085FB41
:1018C000C36802463BB901460790029800F061FBED
:1018D000079A034600E0012311465046079300F0A3
:1018E0007FF9079B4BB9069A3AB9059A2AB9392F5D
:1018F00028D0009B002B1ADC1BE0009A002A04DB96
:101900001AD1069AC2B9059AB2B9002B11DD01228B
:101910000299504600F0ECFA2946029000F039FB9B
:10192000002802DC05D1FA0703D5392F0AD004F1CB
:10193000310709F101040CE0002B09F101040BDD72
:10194000392F05D1392389F8003009F1010954E014
:10195000013789F800706DE0049B039A04F8017C5C
:10196000E31A9342A1463AD000230A220299504634
:1019700000F04DF9464502904FF000034FF00A0287
:101980003146504604D100F042F90646804686E7CB
:1019900000F03DF94146064600230A22504600F079
:1019A00036F980467BE700230A220299504600F070
:1019B0002EF9029029460298FFF742FA00F130070B
:1019C00004F8017B049B039AE31A9342EBDB049B2C
:1019D000012AACBF9B180133B0469946002601226C
:1019E0000299504600F084FA2946029000F0D1FA9C
:1019F000002802DC15D1FB0713D54C4614F8013C36
:101A0000392B04F1FF3209D1049B934204D10BF12D
:101A1000010B3123049A02E01446EFE701331370FF
:101A200008E04C4614F8013C302B04F1FF3201D1A0
:101A30001446F7E72946504600F0D2F8B8F1000FF7
:101A40000DD02EB1464503D03146504600F0C8F8BF
:101A50004146504600F0C4F801E0DDF828B0029994
:101A6000504600F0BDF80023109A23700BF10103DB
:101A70001360219B1BB11C6001E008480AE0049838
:101A800008E0039B002B3FF7E1AE069B022B7FF79C
:101A9000DDAEB1E617B0BDE8F08F00BF3444000002
:101AA0000048704764000020024B0146186800F0AF
:101AB00095BB00BF60000020000000000000000097
:101AC00001F0FF01102A2BDB10F0070F08D010F8EF
:101AD000013B013A8B422DD010F0070F42B3F6D1F3
:101AE000F0B441EA012141EA014122F007047FF00C
:101AF00000070023F0E80256083C85EA010586EA63
:101B0000010685FA47F5A3FA87F586FA47F6A5FA9E
:101B100087F68EB9EED1F0BC01F0FF0102F00702AA
:101B200032B110F8013B013A83EA010313B1F8D155
:101B30000020704701387047002D06BF3546033836
:101B4000073815F0010F07D1013015F4807F02BF6F
:101B5000013015F4C03F0130F0BC0138704700BFC0
:101B600010B5431E0A44914204D011F8014B03F80A
:101B7000014FF8E710BD70B5456A04460E463DB901
:101B80001020FFF791FF6062456085600560C560C9
:101B9000656AEB6843B1636ADB6853F8260078B185
:101BA000026843F8262017E021220421204600F095
:101BB000B9FA636AE860DB68002BECD1002070BDE5
:101BC000012101FA06F56A1D9200204600F0AAFAEA
:101BD0000028F3D04660856000230361C36070BDB8
:101BE00070B5446A06460D463CB91020FFF75CFF0D
:101BF0007062446084600460C4603DB1736A6A6866
:101C0000DB6853F82210296043F8225070BD2DE99B
:101C1000F0410D691F4606460C4601F1140E0023E3
:101C2000DEF8000081B202FB01710F0C000C02FB18
:101C3000007089B2013301EB00419D424FEA104729
:101C40004EF8041BECDCD7B1A3689D4212DB61683F
:101C500030460131FFF78FFF2269023204F10C0197
:101C6000804692000C30FFF77BFF21463046FFF79D
:101C7000B7FF444604EB850301355F6125612046CB
:101C8000BDE8F081030C1B0413B90004102300E02D
:101C9000002310F07F4F04BF0002083310F0704F94
:101CA00004BF0001043310F0404F04BF8000023332
:101CB000002803DB420003D5581C704718467047C4
:101CC00020207047036813F007020BD0D90722D4F5
:101CD0009A074BBF5B089B08036003604CBF012061
:101CE0000220704799B209B91B0C102213F0FF0FA4
:101CF00004BF1B0A0832190704BF1B0904329907E5
:101D000004BF9B080232D90702D45B0805D0013218
:101D1000036010467047002070472020704710B5C0
:101D20000C460121FFF727FF01224461026110BD2B
:101D30002DE9F74F14460A6923699A42B8BF0B464A
:101D40008846BCBFA0461C46D8F81070D4F8109046
:101D5000D8F80830D8F8041007EB09069E42C8BF2F
:101D60000131FFF708FF00F1140505EB860C2B4647
:101D70000022634502D243F8042BFAE704F114026F
:101D800008F1140102EB890301EB87070093009B24
:101D90000192934257D9B2F800B0BBF1000F23D0A3
:101DA0008946AE464FF0000859F8044BBEF800A033
:101DB000A3B20BFB03A34FEA144ADEF800404344EE
:101DC0004FEA14480BFB0A8404EB1344F2469BB21F
:101DD00043EA04434F454FEA14484AF8043B01D90B
:101DE000D646E1E7CEF80480019BB3F802A00432A6
:101DF000BAF1000F21D02B682C4689464FF000081D
:101E0000B9F800E0B4F802B00AFB0EBEF044A346F5
:101E10009BB243EA08434BF8043B59F8043BB4F83F
:101E200004E01B0C0AFB03E303EB18434F454FEAA6
:101E3000134801D95C46E3E763600435A7E75CF823
:101E4000043D13B9013E002EF9DC066103B0BDE884
:101E5000F08F00002DE9F843154612F00302064604
:101E60000F4607D0013A214C002354F82220FFF7F7
:101E7000CEFE0746AD1036D0746A3CB91020FFF78D
:101E800013FE7062446084600460C460D6F82480ED
:101E9000D8F808404CB940F271213046FFF73FFFB7
:101EA0000023C8F80800044603604FF00008EB0761
:101EB0000AD5394622463046FFF73AFF3946814671
:101EC0003046FFF78DFE4F466D100CD0206808B1EC
:101ED0000446ECE7224621463046FFF729FF206002
:101EE000C0F80080F4E73846BDE8F883704400008D
:101EF0002DE9F0470C464FEA621A26694968A36843
:101F0000564407469146751CAB4202DA01315B002C
:101F1000FAE73846FFF72FFE0023804600F1140150
:101F20001A46534503DA41F823200133F9E72AEA38
:101F3000EA73206901EB830319F01F0904F114010E
:101F400001EB800E14D0C9F1200C0022086800FAC1
:101F500009F002439A4643F8042B51F8042B8E45AE
:101F600022FA0CF2F2D8CAF8042042B1B51C06E0FD
:101F7000043B51F8042B43F8042F8E45F9D8013D5A
:101F80003846C8F810502146FFF72AFE4046BDE803
:101F9000F08703690A699B1A10B511D192001430B9
:101FA000143183180A4453F8044D52F8041D8C422E
:101FB00002D007D3012010BD9842F4D3002010BDF9
:101FC000184610BD4FF0FF3010BD2DE9F8430C4608
:101FD0000746114620461546FFF7DBFF061E08D1CF
:101FE00031463846FFF7C7FD012303614661BDE86E
:101FF000F883BCBF23462C4638466168BABF1D46ED
:1020000001260026FFF7B7FD2B69C660266905F19A
:102010001409143404EB860709EB830800F1140556
:102020004FF0000C54F8043B59F8042B1CFA83F1D0
:102030001FFA82FE120CCEEB0101C2EB134303EB3D
:10204000214389B24FEA234CC84541EA0343A646DF
:1020500045F8043BE6D8BE450ED25EF8041B1CFAD8
:1020600081F2131403EB114392B242EA03424FEAA6
:10207000234C45F8042BEEE755F8043D0BB9013E1F
:10208000FAE70661BDE8F8832DE9F7430E46012122
:1020900059EC108B1546FFF76EFDC9F30A5407463D
:1020A000C9F313030CB143F480130193B8F1000F8B
:1020B00019D002A840F8088DFFF704FE009B48B134
:1020C000019AC0F1200102FA01F10B43C2407B6189
:1020D000019200E07B61019BBB61002B14BF0221D8
:1020E0000121396107E001A8FFF7ECFD019B7B614D
:1020F00001213961203034B1A4F233440444346006
:10210000C0F1350009E007EB8103A0F232403060F6
:102110001869FFF7B7FDC0EB41102860384603B0DF
:10212000BDE8F08338B502FB01F4214600F056F813
:10213000054618B122460021FEF704FA284638BDAC
:1021400038B50546002946D051F8043C0C1F002B39
:10215000B8BFE41800F0B0F81F4A1368114613B96D
:102160006360146032E0A3420ED92268A018834253
:1021700004BF18685B68636004BF121822600C60BB
:1021800024E0A24203D813465A68002AF9D11868FD
:102190001918A1420BD121680144581882421960D4
:1021A00014D1106852685A60014419600EE002D9D7
:1021B0000C232B600AE021686018824204BF10687B
:1021C0005268626004BF091821605C602846BDE85F
:1021D000384000F072B838BDD400002070B5CD1C76
:1021E00025F0030508350C2D38BF0C25002D0646BB
:1021F00001DBA94202D90C23336046E000F05CF811
:10220000234B1C681A462146A1B10B685B1B0ED4F8
:102210000B2B03D90B60CC18CD501EE08C420DBFA8
:1022200063684B686360136018BF0C4615E00C468A
:102230004968E9E7174C23681BB9304600F02CF8D1
:1022400020602946304600F027F8431C18D0C41CF3
:1022500024F00304A0420DD12560304600F02DF893
:1022600004F10B00231D20F00700C31A0ED05A42C0
:10227000E25070BD211A304600F00EF80130EBD16B
:102280000C233360304600F018F8002070BD00BF0A
:10229000D4000020D000002038B5064C00230546AD
:1022A0000846236000F00AF8431C02D1236803B1FA
:1022B0002B6038BD8803002070477047044A0549E9
:1022C0001368002B08BF0B4618441060184670476F
:1022D000D800002008040020FEE700BFF0B5174634
:1022E000C7B01C46B9B106AE0B68604A30464FF421
:1022F000807101F0B3FE00280ADB4C9B0546062BDB
:1023000000F2B280DFE803F012323B4653637500FF
:10231000002047B0F0BD4C9B062B00F2A380DFE805
:1023200003F0048B90957C81860000253846FEF7EB
:102330007FFD4319FF2B044640F28D80002CE7DB24
:102340002C44B4F5807FE3D80A27002506AE224648
:102350007119002000F01EFF0544241A08B9013F3E
:1023600001D0002CF3D1012047B0F0BDC0F5807141
:1023700023683A46701901F071FE0446DEE7C0F5A5
:10238000807162682368009270193A4601F066FE17
:102390000446D3E7C0F58071A2682368646800949E
:1023A000019270193A4601F059FE0446C6E7C0F59D
:1023B0008071E2682368D4F808E0646802928DE8CE
:1023C00010403A46701901F049FE0446B6E7C0F5E0
:1023D00080712069E26823680390D4F808E064689B
:1023E00002928DE810403A46701901F037FE04461B
:1023F000A4E7C0F580716269206923680492E268ED
:102400000390D4F808E0646802928DE810403A46E0
:10241000701901F023FE044690E74FF48071002507
:1024200006AEC6E74FF48071002506AED1E74FF443
:102430008071002506AEDEE74FF48071002506AE00
:1024400096E74FF48071002506AE9AE74FF480714D
:10245000002506AEA0E706AE394670192246FFF702
:102460007FFB6BE700246FE7002469E770450000FD
:102470002DE9F04F1546C5B01C46002900F01B8120
:10248000002B00F0FA800A2301930023194604AEC2
:102490004F9B519A202503EB020B8A461F46019859
:1024A0000AEB00030293313306EB030806EB0A0341
:1024B000002861D05A4202F00302824228BF02463D
:1024C000062800F2D1800246012A06F80A5003F1DC
:1024D000010100F0C780022A5D7003F1020100F0E3
:1024E000C180032A9D7003F1030100F0BB80042A20
:1024F000DD7003F1040100F0B580062A1D7103F1BF
:10250000050140F0B7805D71991D96460198904293
:1025100030D0801A039004384FEA9009019800F1F6
:10252000FF3CC2EB0C0C09F10100BCF1020F4FEAB9
:10253000800913D952444FF0203C012806EB020ACF
:1025400046F802C005D00228CAF804C001D0CAF873
:1025500008C0039A91454944CE440BD001980D70B0
:102560000EF10102824205D20EF1020E86454D7037
:1025700000D28D70019A1344534A0393D2F800900D
:1025800008F10100DA1C03F1330C0CE002F8035CE3
:1025900002F8025C02F8015C0332624500F8015C5B
:1025A00000F1010030D0A345F0D9A74256D94E9989
:1025B000095D02F8015C4FEA211E5FFA8EFABEF156
:1025C000090F01F00F0ED4BF0AF1300A0AF1370AE1
:1025D000BEF1090F02F803AC94BF0EF1300E0EF1FC
:1025E000370E09EB010A02F802EC9AF801E0033217
:1025F0001EF0970F08BF2E21624500F8011C04F160
:10260000010400F10100CED1039B02990D224FF08D
:102610000A0901F1430A88F8102088F8119083F81C
:10262000305023464FF0000854469A46224606EBA7
:102630000801002000F0AEFD8044241A10B9B9F161
:10264000010901D0002CF1D154465C454FF0000A3D
:10265000FFF425AF204645B0BDE8F08FE11B509B4D
:10266000595CA6E7964651E7002A7FF42DAF19463C
:1026700096464EE74FF0050E48E704AE0B68134A46
:1026800030464FF4807101F0E9FC0028E2DB0A23B8
:10269000074601932846FEF7CBFBC22828BFC2207D
:1026A000804629460246F019FFF75AFA07EB08035D
:1026B00000241946ECE61BB90194274604AEE9E76D
:1026C000019104AEE4E600BFA400002070450000C4
:1026D00070B5074D074E2B7813B13378834205D080
:1026E000044600F015FE012334702B70002070BDED
:1026F000DD000020DC00002000487047DD220000E3
:10270000004870477124000038B50120FFF7E0FF52
:10271000044638B9FFF7F0FF0546FFF7F1FF024B1B
:102720005D619861204638BDE000002010B5054C81
:1027300082B000230A46646900931946A04702B09C
:1027400010BD00BFE000002030B585B004AB054CE3
:1027500043F8042D01250A46646900950021A0472D
:1027600005B030BDE000002030B5064C85B0022534
:10277000029203930A466469009502AB0021A047C8
:1027800005B030BDE000002000B585B00023039007
:10279000194601AA44F20100ADF80430029300F09A
:1027A00003F805B05DF804FB08B508490120FFF700
:1027B000BDFFBFF34F8F0649064BCA6802F4E062C3
:1027C0001343CB60BFF34F8F00BFFDE77845000098
:1027D00000ED00E00400FA05002810B418DB00F159
:1027E000604303F561434901C9B283F80013C3B2E2
:1027F0004009800000F1604000F5614003F01F02D5
:1028000001239340C0F8803103605DF8044B7047AA
:10281000C3B2044A03F00F0449012244C9B211763D
:10282000E6E700BFFCEC00E02DE9F04186B00026B1
:102830009E4B01961A68012A00F000819C4B1A6891
:10284000012A00F0ED809B4B1A68012A00F0DA8023
:10285000994B1A68012A00F0C780984B1A68012A20
:1028600000F0B480964B1A68012A00F0A180954BC5
:102870001A68012A00F08E80934B1A68012A7BD0D7
:10288000924B1A68012A6AD016F0FF0F1AD0904FA7
:1028900001250024A30003F180432E4203F5C04329
:1028A0004FEA45050BD0D3F8100557F82420D3F88C
:1028B0001015C0F30420C1F3014102B19047013467
:1028C000082CE7D1002E02DB06B0BDE8F081804C79
:1028D00000224FF0FF33264602920393012594F91C
:1028E00044305A1CF0D0DBB223F0C00006A9C20865
:1028F00001EB020C03F007071CF80C1C05FA07F7A4
:102900003942E1D006EB000E99099EF9243056F8C1
:102910002380B8F1000F00F09F80032900F09F8012
:10292000830003F1A0431CF814ECD3F800271EEA3F
:10293000070FC2F301420BD1032AC5D1032900F0CE
:102940009680B8F1000FBFD0C04706B0BDE8F08157
:10295000022AB9D10329F4D14FF4403789E000228B
:102960001A601B6805934FF0A043059AD3F8103501
:10297000019346F0004687E7564AD2F80423110631
:102980007FF57EAF00221A601B680493049B46F01B
:10299000800675E74F4AD2F8042350067FF56CAFE6
:1029A00000221A601B680493049B46F0400663E70C
:1029B000484AD2F8042394067FF559AF00221A60E2
:1029C0001B680493049B46F0200650E7414AD2F866
:1029D0000423D5067FF546AF00221A601B680493D6
:1029E000049B46F010063DE73A4AD2F80423170745
:1029F0007FF533AF00221A601B680493049B46F0F6
:102A000008062AE7334AD2F8042352077FF520AF9D
:102A100000221A601B680493049B46F0040617E723
:102A20002C4AD2F8042391077FF50DAF00221A60DB
:102A30001B680493049B46F0020604E72549D1F87D
:102A4000041311F0010105D01E601B680493049B60
:102A50001646F3E60E46F1E603297FF435AF02ABE6
:102A60000DF1080E9B5C3B430EF8023058E74FF423
:102A70000037D3F8001721F44031C3F80017D3F81A
:102A800000273A43C3F80027B8F1000F0BD14FF0ED
:102A9000A043019AD3F8103593423FF415AF029A40
:102AA000019303921BE70321C047F0E70061004058
:102AB00004610040086100400C610040106100406A
:102AC00014610040186100401C6100407C610040BE
:102AD000FC0000200060004000B52D4B1A6887B054
:102AE00022B12C4AD2F80413C8073CD42A4B1A68E6
:102AF00022B1284AD2F8041389071CD4274B1A683C
:102B000022B1244AD2F80423520702D407B05DF858
:102B100004FB06AA002119604FF48470196822F89A
:102B2000080D1F4B039103991B6892E80300984717
:102B300007B05DF804FB002119601B6802934FF495
:102B40008273ADF81030029BD2F81835ADF8123010
:102B5000D2F84825124BADF8142006AA12E903005A
:102B60001B689847CAE7002119601B6801934FF45E
:102B70008073ADF81030019BD2F80C25084B8DF80E
:102B8000122006AA12E903001B689847AEE700BFAF
:102B900000210140002001400421014008210140A2
:102BA0004401002070B52D4C23780BB1082070BD76
:102BB0002B4A002808BF104600294AD0294A2A4E2D
:102BC00045783160C2F80855C5684FF0A04105F559
:102BD000E07541F82530456805F5E07541F8253088
:102BE000856805F5E07541F82530C368456881685A
:102BF000C2F82055C2F82415C2F81C350369C2F882
:102C00004035037DC2F80435D2F8003243F00103A9
:102C1000C2F80032437DC3B9C2F828350278082AC9
:102C200019D010490723C1F810250621857D0D4ACA
:102C3000002D08BF0B46C2F80433C17D1220FFF7F8
:102C4000CBFD01232370002070BD0123C2F828357D
:102C5000E4E7072070BD05230421E7E748010020D1
:102C6000904500000020014044010020044B05492C
:102C700001220220C3F800251A600870704700BFC7
:102C8000002001404801002070B59B4C237F8EB08E
:102C9000002B75D1994AD2F80413890548D4974B73
:102CA000D3F80423520704D5D3F80821002A40F0B2
:102CB000CA80924BD3F81C21C2B1A28AA07D8E4952
:102CC00092B282424FF00002C3F81C2180F0A9802A
:102CD000D3F81C210692069A888A8A8A8D6880B267
:102CE0000132285C92B28A82C3F81C05834BD3F868
:102CF0004421DAB10022C3F84421D3F84411A27E62
:102D000004910499002A40F08980E27D7A4B6AB1EF
:102D10000022587ED968DA7501228DF830000B91B7
:102D20008DF828200AA893E8060090470EB070BDE1
:102D3000D2F824110029B2D0C2F82431D2F82411DB
:102D4000A37E07914FF401710798C2F808130BB9DD
:102D500001235360694A02238DF82830D2F8803469
:102D6000C2F88034E07DE2680D9300238DF83000D6
:102D7000E375237621680B9263680AA8984798E761
:102D80005E4BD3F82421002A40F09380D3F8101131
:102D900061B1C3F81021D3F8101103910399D3F84E
:102DA0003C15E07DC9B2884200F0AA80534BD3F8AD
:102DB0004421B2B10022C3F84421D3F84411E07D8C
:102DC000019101994C4960B1D3F83C35C8688DF840
:102DD00030300123CA750B908DF828300AA80AC933
:102DE0009847464BD3F82021002A9FD00022C3F8F1
:102DF0002021D3F82011A07D009100993E490028A0
:102E000094D0D3F84C058B688DF830008A750B93FD
:102E10008DF828200AC90AA8984787E701221A6076
:102E200073E7D3F81C310593059B00283FF45EAF90
:102E30008B688DF830008A750B938DF828200AC9AD
:102E40000AA8984752E7E17D2B4A002970D000215B
:102E5000C3F80811D3F8081108910899D068517E79
:102E6000D3F818354354537ED17D0133DBB253760A
:102E7000627E214B8A427FF41CAF1A7E002A6DD1FC
:102E80009B7E13B91D4B01225A601C4AE06863689F
:102E90004FF40171C2F80813627E8DF830200025CE
:102EA00001220B902168E5758DF828200AA8984723
:102EB000FFE60022C3F82421D3F824110291022155
:102EC0008DF828100299D3F88014C3F880140D915E
:102ED000D3F83C15E368E27522768DF830100B9339
:102EE000216863680AA89847044BD3F84421002A54
:102EF0003FF477AF5EE700BF4C01002000200040A8
:102F0000217EF1B1D3F80062E17526F02001E56879
:102F1000C3F8001226698DF8300001238DF828309F
:102F2000227621680B95E66063680AA898473DE71A
:102F3000C3F80811D3F808210992099AD3F8183573
:102F400096E7E268E17501238DF830008DF82830AE
:102F50000B9294E80A000AA8984727E7DE685D7E8E
:102F60001869DA7501210022D8601A765A768DF830
:102F700028100B968DF8305093E806000AA8904769
:102F800097E600BF0000000070B52DED028B82B007
:102F900002AB03E90300BDF80030B3F5827F08D02F
:102FA0005949032002B0BDEC028BBDE87040FFF729
:102FB000BDBB564A564C574D574BBDF80460166082
:102FC000BDF902102868216001221A7000F0CAFCC5
:102FD0004BA3D3E9002300F043FE00F0EFFFD4ED54
:102FE000007A4E49226808EE900AF8EEE77A03204C
:102FF00027EEA88AFFF7A8FB2268236823682068C9
:1030000064211B1A01FB03F303204549FFF7ACFBC6
:10301000802244490320FFF797FB4FF48C7242490A
:103020000320FFF791FBD5ED007A9FED406A404900
:10303000BDEEE77AF5EEC07AF8EEC76AF1EE10FA67
:10304000CCBF77EEE67A76EEE77A17EE102A67EED7
:10305000867A0320FDEEE77A17EE903AFFF784FBBD
:103060000023202233490320FFF77EFB0023802228
:1030700031490320FFF778FB00234FF48C722F496E
:103080000320FFF771FB00232D4A2E490320FFF791
:103090006BFBBDEEE87AF5EEC08AF8EEC77AF1EE8A
:1030A00010FACCBF78EEE77A77EEE87ADFED1F6AA8
:1030B000254967EEA67A17EE102AFDEEE77A03207F
:1030C00017EE903AFFF750FBBDEEC87AB5EEC08A16
:1030D000F8EEC77AF1EE10FADFED146A1B49CCBFA7
:1030E00078EE677A77EEC87A17EE102A67EEA67A3E
:1030F0000320FDEEE77A17EE903AFFF735FB4FE736
:10310000D2FBC6D79E59F23F38470000700100201D
:103110006C0100209C00002074010020A8450000E4
:10312000C0450000E0450000FC4500000000C8422A
:103130001846000034460000584600007C46000057
:1031400040420F00A0460000CC4600000C470000A3
:1031500008B50020FFF7D8FA60B90C490020FFF746
:1031600021FD78B90A490320FFF7E0FAFFF77EFD59
:1031700020BFFDE7FFF708FB04490020FFF712FD21
:103180000028EFD0FFF700FBECE700BF892F00001D
:103190004C4700002DE9F84F4300DFF870A11E18DE
:1031A0000AEBC6068846F16A0129174641D031D399
:1031B000022939D1013000EB4000756A4FEAC0099D
:1031C0004FF0000B1CE0326A641BBC420AEB0901A1
:1031D0002346A2EB050428BF3B469C42486828BF13
:1031E0001C46284441462246FEF7BAFC336A254471
:1031F0009D4208BF00253F1BA344A044756215D023
:10320000B36AAB4203F1FF34DDD8326A1344013BA9
:103210005C1BDAE7B16A726A91429CBF346A091991
:1032200001398A1A974236D94FF0000B5846BDE84B
:10323000F88FB16A756AA94227D90139326AC5EB9C
:10324000010B03440AEBC30ABB45DAF824502F4BA9
:1032500028BFBB46561B0130B34500EB40003BD3B3
:1032600003EBC0043246606841462844C6EB0B05B8
:10327000FEF776FC606808EB06012A46FEF770FC54
:10328000CAF824505846BDE8F88F326A8C18013CC1
:10329000C5EB040BD5E703440AEBC30A0130DAF8A7
:1032A0002460DAF82040194BA41BA74200EB400031
:1032B0001ED303EBC00522466868414630443E1BDE
:1032C000FEF74EFC686808EB04013246FEF748FC46
:1032D000BB46CAF82460A9E703EBC003414658681F
:1032E0005A4628445D44FEF73BFCCAF824509DE74B
:1032F00003EBC003414658683A4630443E44FEF76B
:103300002FFCBB46CAF8246090E700BF8C03002066
:10331000F8B5114C2378F3B9A362104A6362022016
:10332000A365E362E36563650D4F0E4D0E492061B1
:1033300010234FF4007623656061A261A264E01D52
:10334000E7612662E56400F0BBFE0849204600F014
:10335000B7FE2023A371F8BD8C0300206C4700004A
:103360008801002078010020784700007C47000099
:103370000649074A074B9B1A03DD043BC858D05047
:10338000FBDC00F013F8FDF769F80000A44800002A
:1033900000000020B4000020FEE7FEE7FEE7FEE7A5
:1033A000FEE7FEE7FEE7FEE7FEE7FEE7F0B4A64B2A
:1033B0001B78062B1BD0A54AD2F8883043F4700343
:1033C000C2F88830BFF34F8FBFF36F8F4FF01023D9
:1033D000D3F80022002AC0F20581D3F80432002B72
:1033E000C0F200819A4B9B4A1A60F0BC70479A4B1E
:1033F0001B681E07DFD1994B1B6803F0F003302BCD
:1034000002D1974B974A1A60944B1B6803F0F00265
:10341000302A00F0D68003F0E003402B00F0D1808A
:103420008E4B1B6803F0F003302B00F0BB808B4BFE
:103430001B6803F0F002302A00F0A08003F0E003E4
:10344000402B00F09B80854B1B6803F0F003302B72
:1034500000F08680814B1B6803F0F003302B68D0AE
:103460007E4B1B6803F0F003502B10D07B4B1B6886
:1034700003F0F002302A03D003F0E003402B9AD18E
:10348000794B7A4A1B6803F04F03136093E74FF0C0
:103490008052774BD2F80414C3F82015D2F80814E0
:1034A000C3F82415D2F80C14C3F82815D2F8101458
:1034B000C3F82C15D2F81414C3F83015D2F8181428
:1034C000C3F83415D2F81C14C3F84015D2F82014F0
:1034D000C3F84415D2F82414C3F84815D2F82814B8
:1034E000C3F84C15D2F82C14C3F85015D2F8301488
:1034F000C3F85415D2F83414C3F86015D2F8381450
:10350000C3F86415D2F83C14C3F86815D2F8401417
:10351000C3F86C15D2F844244B49C3F870250A78D7
:10352000062A7FF448AF4C4B1B681B077FF443AF60
:103530009CE7454B4F491B784F4D5048504A052753
:103540000F60012600243F21062B2E6004601160CD
:103550007FF431AF404B1B681A077FF42CAF7FE735
:10356000394B484A1B780321062B11607FF423AFA7
:10357000394B1B6819077FF41EAF6BE7324B1B7882
:103580004FF080420021062BC2F80C11C2F8101136
:10359000C2F838157FF40FAF2F4B1B6818077FF464
:1035A0000AAF50E73849284ACB68127823F0807375
:1035B000062ACB60B4D1284B1B681C077FF4FBAEF6
:1035C00035E7324A204B12681B783149C2F3423248
:1035D000062B0A607FF4EFAE1F4B1B681D077FF4BC
:1035E000EAAE1DE72B4B0122C3F80425D3F80024D3
:1035F000002AFBD04FF0102315222649C3F80022E1
:10360000D1F80034002BFBD04FF0102315222149B4
:10361000C3F80422D1F800241E4B002AFAD000225D
:10362000C3F80425D3F80024002AFBD0BFF34F8F42
:103630000649194BCA6802F4E0621343CB60BFF33A
:103640004F8F00BFFDE700BFE00F00F000ED00E08E
:10365000A00000200090D003E40F00F0E80F00F07D
:1036600074C007400DF0ADBA58020010E40E0040DF
:1036700000C00040105600408856004018560040D8
:1036800014560040A0050040F0ED00E04402001098
:103690003C05004000E001400400FA0581F00041D3
:1036A00002E000BF83F0004330B54FEA41044FEA27
:1036B000430594EA050F08BF90EA020F1FBF54EAC2
:1036C000000C55EA020C7FEA645C7FEA655C00F05E
:1036D000E2804FEA5454D4EB5555B8BF6D420CDD2F
:1036E0002C4480EA020281EA030382EA000083EAB2
:1036F000010180EA020281EA0303362D88BF30BD52
:1037000011F0004F4FEA01314FF4801C4CEA1131A7
:1037100002D0404261EB410113F0004F4FEA033306
:103720004CEA133302D0524263EB430394EA050F91
:1037300000F0A780A4F10104D5F1200E0DDB02FA00
:103740000EFC22FA05F2801841F1000103FA0EF294
:10375000801843FA05F359410EE0A5F120050EF15A
:10376000200E012A03FA0EFC28BF4CF0020C43FA8B
:1037700005F3C01851EBE37101F0004507D54FF098
:10378000000EDCF1000C7EEB00006EEB0101B1F5E8
:10379000801F1BD3B1F5001F0CD349085FEA30002E
:1037A0004FEA3C0C04F101044FEA445212F5800F39
:1037B00080F09A80BCF1004F08BF5FEA500C50F1D6
:1037C000000041EB045141EA050130BD5FEA4C0CB9
:1037D000404141EB010111F4801FA4F10104E9D142
:1037E00091F0000F04BF01460020B1FA81F308BF39
:1037F0002033A3F10B03B3F120020CDA0C3208DD05
:1038000002F1140CC2F10C0201FA0CF021FA02F1DF
:103810000CE002F11402D8BFC2F1200C01FA02F14F
:1038200020FA0CFCDCBF41EA0C019040E41AA2BF74
:1038300001EB0451294330BD6FEA04041F3C1CDA3C
:103840000C340EDC04F11404C4F1200220FA04F05C
:1038500001FA02F340EA030021FA04F345EA030106
:1038600030BDC4F10C04C4F1200220FA02F001FAC8
:1038700004F340EA0300294630BD21FA04F029464A
:1038800030BD94F0000F83F4801306BF81F48011E3
:103890000134013D4EE77FEA645C18BF7FEA655C56
:1038A00029D094EA050F08BF90EA020F05D054EA28
:1038B000000C04BF1946104630BD91EA030F1EBF2D
:1038C0000021002030BD5FEA545C05D14000494131
:1038D00028BF41F0004130BD14F580043CBF01F524
:1038E000801130BD01F0004545F0FE4141F470010A
:1038F0004FF0000030BD7FEA645C1ABF19461046E5
:103900007FEA655C1CBF0B46024650EA013406BFE5
:1039100052EA033591EA030F41F4002130BD00BFA4
:1039200090F0000F04BF0021704730B54FF4806461
:1039300004F132044FF000054FF0000150E700BFE2
:1039400090F0000F04BF0021704730B54FF4806441
:1039500004F1320410F0004548BF40424FF000012E
:103960003EE700BF42004FEAE2014FEA31014FEA71
:1039700002701FBF12F07F4393F07F4F81F06051C0
:10398000704792F0000F14BF93F07F4F704730B52F
:103990004FF4607401F0004521F0004120E700BFC2
:1039A00050EA010208BF704730B54FF000050AE049
:1039B00050EA010208BF704730B511F0004502D54A
:1039C000404261EB41014FF4806404F132045FEA4C
:1039D000915C3FF4DCAE4FF003025FEADC0C18BFF1
:1039E00003325FEADC0C18BF033202EBDC02C2F1E7
:1039F000200300FA03FC20FA02F001FA03FE40EA79
:103A00000E0021FA02F11444C1E600BF70B54FF078
:103A1000FF0C4CF4E06C1CEA11541DBF1CEA13555A
:103A200094EA0C0F95EA0C0F00F0DEF82C4481EAC2
:103A3000030621EA4C5123EA4C5350EA013518BFE2
:103A400052EA033541F4801143F4801338D0A0FBCF
:103A500002CE4FF00005E1FB02E506F00042E0FB7C
:103A600003E54FF00006E1FB03569CF0000F18BF82
:103A70004EF0010EA4F1FF04B6F5007F64F540742A
:103A800004D25FEA4E0E6D4146EB060642EAC621BD
:103A900041EA55514FEAC52040EA5E504FEACE2E2A
:103AA000B4F1FD0C88BFBCF5E06F1ED8BEF1004F2D
:103AB00008BF5FEA500E50F1000041EB045170BDA9
:103AC00006F0004646EA010140EA020081EA0301ED
:103AD000B4EB5C04C2BFD4EB0C0541EA045170BDE9
:103AE00041F480114FF0000E013C00F3AB8014F163
:103AF000360FDEBF002001F0004170BDC4F10004AC
:103B0000203C35DA0C341BDC04F11404C4F120052C
:103B100000FA05F320FA04F001FA05F240EA020087
:103B200001F0004221F0004110EBD37021FA04F6BD
:103B300042EB06015EEA430E08BF20EAD37070BD77
:103B4000C4F10C04C4F1200500FA04F320FA05F0D6
:103B500001FA04F240EA020001F0004110EBD370D8
:103B600041F100015EEA430E08BF20EAD37070BD48
:103B7000C4F1200500FA05F24EEA020E20FA04F321
:103B800001FA05F243EA020321FA04F001F00041D0
:103B900021FA04F220EA020000EBD3705EEA430E41
:103BA00008BF20EAD37070BD94F0000F0FD101F070
:103BB0000046400041EB010111F4801F08BF013CA9
:103BC000F7D041EA060195F0000F18BF704703F0E7
:103BD0000046520043EB030313F4801F08BF013D6E
:103BE000F7D043EA0603704794EA0C0F0CEA13552A
:103BF00018BF95EA0C0F0CD050EA410618BF52EAE4
:103C00004306D1D181EA030101F000414FF00000E9
:103C100070BD50EA410606BF1046194652EA4306F7
:103C200019D094EA0C0F02D150EA013613D195EA6B
:103C30000C0F05D152EA03361CBF104619460AD1B3
:103C400081EA030101F0004141F0FE4141F47001BD
:103C50004FF0000070BD41F0FE4141F4780170BDAD
:103C600070B54FF0FF0C4CF4E06C1CEA11541DBF12
:103C70001CEA135594EA0C0F95EA0C0F00F0A7F814
:103C8000A4EB050481EA030E52EA03354FEA013141
:103C900000F088804FEA03334FF0805545EA131354
:103CA00043EA12634FEA022245EA111545EA10651C
:103CB0004FEA00260EF000419D4208BF964244F1B3
:103CC000FD0404F5407402D25B084FEA3202B61AD2
:103CD00065EB03055B084FEA32024FF480104FF4A6
:103CE000002CB6EB020E75EB030E22BFB61A75461A
:103CF00040EA0C005B084FEA3202B6EB020E75EBAD
:103D0000030E22BFB61A754640EA5C005B084FEA14
:103D10003202B6EB020E75EB030E22BFB61A7546E1
:103D200040EA9C005B084FEA3202B6EB020E75EBEC
:103D3000030E22BFB61A754640EADC0055EA060EAD
:103D400018D04FEA051545EA16754FEA06164FEAF0
:103D5000C30343EA52734FEAC2025FEA1C1CC0D19C
:103D600011F4801F0BD141EA00014FF000004FF029
:103D7000004CB6E711F4801F04BF01430020B4F1EA
:103D8000FD0C88BFBCF5E06F3FF6AFAEB5EB030CA2
:103D900004BFB6EB020C5FEA500C50F1000041EB9F
:103DA000045170BD0EF0004E4EEA113114EB5C046C
:103DB000C2BFD4EB0C0541EA045170BD41F480113F
:103DC0004FF0000E013C90E645EA060E8DE60CEA47
:103DD000135594EA0C0F08BF95EA0C0F3FF43BAF64
:103DE00094EA0C0F0AD150EA01347FF434AF95EA1B
:103DF0000C0F7FF425AF104619462CE795EA0C0FFF
:103E000006D152EA03353FF4FDAE1046194622E7CB
:103E100050EA410618BF52EA43067FF4C5AE50EAA5
:103E200041047FF40DAF52EA43057FF4EBAE12E795
:103E30004FF0FF3C06E000BF4FF0010C02E000BF76
:103E40004FF0010C4DF804CD4FEA410C7FEA6C5C59
:103E50004FEA430C18BF7FEA6C5C1BD001B050EAFC
:103E6000410C0CBF52EA430C91EA030F02BF90EAE7
:103E7000020F0020704710F1000F91EA030F58BFA6
:103E8000994208BF90422CBFD8176FEAE37040F008
:103E9000010070474FEA410C7FEA6C5C02D150EAA6
:103EA000013C07D14FEA430C7FEA6C5CD6D152EA61
:103EB000033CD3D05DF8040B704700BF8446104626
:103EC00062468C461946634600E000BF01B5FFF725
:103ED000B7FF002848BF10F1000F01BD4DF808EDF5
:103EE000FFF7F4FF0CBF012000205DF808FB00BFC6
:103EF0004DF808EDFFF7EAFF34BF012000205DF820
:103F000008FB00BF4DF808EDFFF7E0FF94BF01206C
:103F100000205DF808FB00BF4DF808EDFFF7CEFF6D
:103F200094BF012000205DF808FB00BF4DF808EDAC
:103F3000FFF7C4FF34BF012000205DF808FB00BF7D
:103F40004FEA410C7FEA6C5C02D150EA013C0AD195
:103F50004FEA430C7FEA6C5C02D152EA033C02D187
:103F60004FF0000070474FF0010070474FEA4102E8
:103F700012F5001215D211D56FF47873B3EB6252BB
:103F800012D94FEAC12343F0004343EA505311F0E2
:103F9000004F23FA02F018BF404270474FF0000074
:103FA000704750EA013005D111F0004008BF6FF0B2
:103FB000004070474FF00000704700BF4FEA4102D9
:103FC000B2F1E04324BFB3F5001CDCF1FE5C0DD977
:103FD00001F0004C4FEAC0024CEA5070B2F1004FC1
:103FE00040EB830008BF20F00100704711F0804FC4
:103FF00021D113F13872BCBF01F00040704741F489
:1040000080114FEA5252C2F11802C2F1200C10FA8C
:104010000CF320FA02F018BF40F001004FEAC12370
:104020004FEAD32303FA0CFC40EA0C0023FA02F314
:104030004FEA4303CCE77FEA625307D150EA0133EA
:104040001EBF4FF0FE4040F44000704701F00040BA
:1040500040F0FE4040F40000704700BF0CB430B5A3
:10406000164B0C1E9DB01D6804DA8B232B604FF09D
:10407000FF301EE04FF40273ADF8143014BF04F1AA
:10408000FF332346049307934FF6FF730290069085
:10409000ADF81630209A21AB02A92846019300F012
:1040A00071F8431CBCBF8B232B6014B1029B002210
:1040B0001A701DB0BDE8304002B0704760000020AB
:1040C000034611F8012B03F8012B002AF9D17047A0
:1040D0002DE9F0478E689E4282460C4691469846EE
:1040E0003ED88A8912F4906F3AD0256809696F1A10
:1040F0006569022305EB450595FBF3F57B1C4344FD
:104100009D4238BF1D4653050FD52946FEF766F878
:10411000064698B13A462169FDF722FDA38923F4AA
:10412000906343F08003A38113E02A4600F039F93D
:10413000064670B921695046FEF702F80C23CAF80A
:104140000030A38943F04003A3814FF0FF30BDE866
:10415000F087266165613E44ED1B2660A5604646FA
:10416000464528BF464632464946206800F0FEF8DC
:10417000A3689B1BA36023681E4426600020BDE843
:10418000F08700002DE9F04F9DB0804603938B89A6
:104190001C060D4616460DD50B695BB94021FEF78E
:1041A0001DF82860286118B90C23C8F80030CDE04C
:1041B00040236B610023099320238DF82930DFF819
:1041C0009CB130238DF82A3037463C4614F8013B29
:1041D0001BB9B7EB060910D003E0252BF9D0274611
:1041E000F3E74B46324629464046FFF771FF013060
:1041F00000F0A780099B4B4409933B78002B00F00B
:10420000A08000234FF0FF3204930793059206939A
:104210008DF853301A930126052221784E48FDF778
:104220004FFC671C049B38B14B4A801A06FA00F019
:10423000184304903C46EFE7D90644BF20228DF88E
:1042400053201A0744BF2B228DF8532022782A2AA4
:1042500003D0079A00210A200BE0039A111D12686F
:104260000391002A10DA524243F0020007920490B0
:104270000BE0274601343B78303B092B03D800FB89
:1042800002320121F5E701B107923B782E2B1ED1B6
:104290007B782A2B0AD1039B1A1D1B680392002BE3
:1042A000B8BF4FF0FF330237059310E000230593AA
:1042B000781C19460A24074601303A78303A092A10
:1042C00003D804FB01210123F5E703B10591032283
:1042D00039782248FDF7F4FB40B14023CBEB0000D6
:1042E00003FA00F0049B18430490013739781C4806
:1042F0008DF8281006227E1CFDF7E2FB88B1194BD1
:1043000033B9039B073323F007030833039314E007
:1043100003AB00932A46144B04A94046FCF7AEF9C0
:1043200007E003AB00932A460F4B04A94046FCF775
:1043300059FCB0F1FF3F824603D0099B53440993D7
:1043400042E7AB895B0601D4099801E04FF0FF30EA
:104350001DB0BDE8F08F00BF854800008B4800000D
:104360008F4800007D060000D1400000884210B553
:1043700001EB020301D8421E0BE09842FBD28118E8
:10438000D21AD34204D013F8014D01F8014DF8E7D9
:1043900010BD994204D011F8014B02F8014FF8E723
:1043A00010BDF8B5074615460E4621B91146BDE8C1
:1043B000F840FDF713BF1AB9FDF7C2FE2846F8BD55
:1043C00000F015F885420ED929463846FDF706FF5C
:1043D000044650B131462A46FDF7C2FB3146384605
:1043E000FDF7AEFE01E03046F8BD2046F8BD51F8BD
:1043F000040C0028BEBF091851F8043CC01804384A
:1044000070470000F8B500BFF8BC08BC9E46704776
:10441000F8B500BFF8BC08BC9E46704743000000DA
:1044200000000020494E4600696E66004E414E0075
:104430006E616E0030003031323334353637383902
:104440004142434445460030313233343536373803
:104450003961626364656600496E66696E69747984
:10446000004E614E00504F534958002E000000008E
:1044700005000000190000007D00000000000000A1
:104480000080E03779C34143176E05B5B5B8934650
:10449000F5F93FE9034F384D321D30F94877825A1C
:1044A0003CBF737FDD4F1575000000000000F03F3A
:1044B00000000000000024400000000000005940FF
:1044C0000000000000408F40000000000088C34052
:1044D00000000000006AF8400000000080842E41C7
:1044E00000000000D01263410000000084D7974113
:1044F0000000000065CDCD41000000205FA0024219
:10450000000000E876483742000000A2941A6D428D
:10451000000040E59C30A2420000901EC4BCD64280
:1045200000003426F56B0C430080E03779C341432B
:1045300000A0D8855734764300C84E676DC1AB43A1
:10454000003D9160E458E143408CB5781DAF1544BF
:1045500050EFE2D6E41A4B4492D54D06CFF080449A
:10456000F64AE1C7022DB544B49DD9794378EA44AF
:104570005B253038645D00004150505F4552524F1A
:10458000523A4552524F523A466174616C0D0A00DC
:104590000700000003000000070000001C000000EE
:1045A00032000000010000074150503A494E464F8A
:1045B0003A6D5F616363726561643A2025640A0045
:1045C0004150503A494E464F3A6D5F6163637265A0
:1045D00061643A2025642E253032640D0A00000003
:1045E0004150503A494E464F3A696E745F73616D5F
:1045F000706C657065723A2025640A004150503A2B
:10460000494E464F3A696E745F7265706F7274708E
:1046100065723A2025640A004150503A494E464F8F
:104620003A5069202A2032203A2025642E25303243
:10463000640D0A004150503A494E464F3A51454E9A
:10464000435F57494E444F5753203A2025642E2547
:104650003032640D0A0000004150503A494E464F36
:104660003A665F73616D706C65706572203A2025E3
:10467000642E253032640D0A000000004150503A8B
:10468000494E464F3A665F7265706F72747065721C
:10469000203A2025642E253032640D0A00000000E7
:1046A0004150503A494E464F3A54494D455F554E58
:1046B00049545F434F4E56455253494F4E203A207E
:1046C00025642E253032640D0A0000004150503A16
:1046D000494E464F3A4D5F504978325F6F7665726A
:1046E0005F77696E646F77735F785F73616D706C0D
:1046F000655F706572696F645F6C656E203A202536
:10470000642E253032640D0A000000004150503AFA
:10471000494E464F3A616E67756C61725F76656CA3
:104720006F63697479203A2025642E2530326452F3
:1047300061642F730D0A00004150503A494E464FB4
:104740003A6576656E740D0A000000004150503ADB
:10475000494E464F3A514445432074657374696E1F
:104760006720737461727465640D0A005465726D1C
:10477000696E616C00000000525454005345474775
:104780004552000000202020202020202020282822
:104790002828282020202020202020202020202001
:1047A0002020202020881010101010101010101041
:1047B0001010101010040404040404040404041071
:1047C00010101010101041414141414101010101FF
:1047D00001010101010101010101010101010101C9
:1047E00010101010101042424242424202020202D5
:1047F0000202020202020202020202020202020299
:104800001010101020000000000000000000000048
:104810000000000000000000000000000000000098
:104820000000000000000000000000000000000088
:104830000000000000000000000000000000000078
:104840000000000000000000000000000000000068
:104850000000000000000000000000000000000058
:104860000000000000000000000000000000000048
:104870000000000000000000000000000000000038
:104880000000000000232D302B2000686C4C0065D8
:0C4890006667454647000000000000007D
:08489C00C0BBFF7F010000001A
:1048A4000000000000000000000000000000000004
:1048B40000000000000000000000000000000000F4
:1048C4001C44000000000000000000000000000084
:1048D40000000000000000000000000000000000D4
:1048E40000000000000000000000000000000000C4
:1048F40000000000000000000000000000000000B4
:10490400000000206B4400008A4800008A48000030
:104914008A4800008A4800008A4800008A4800004B
:104924008A4800008A4800008A480000FFFFFFFF11
:10493400FFFFFFFFFFFFFFFFFFFF0000DB0FC9408A
:104944000090D00384470000250400000104000007
:04495400000000005F
:040000030000337155
:00000001FF
